:100000000C9469000C9491000C9491000C94910054
:100010000C9491000C9491000C9491000C9491001C
:100020000C9491000C9491000C9491000C9491000C
:100030000C9491000C9491000C9491000C949100FC
:100040000C9437170C9491000C94D01C0C94131D35
:100050000C9491000C9491000C9491000C949100DC
:100060000C9491000C949100000000070002010024
:100070000003040600000000000000000102040864
:100080001020408001020408102001020408102002
:10009000040404040404040402020202020203032E
:1000A0000303030300000000250028002B000000CC
:1000B0000000240027002A009B02F6038D06960804
:1000C000300A890A350D7D1335157415ED184E1D4E
:1000D000BF0211241FBECFEFD8E0DEBFCDBF14E0BA
:1000E000A0E0B1E0EEEDF2E402C005900D92A8337D
:1000F000B107D9F725E0A8E3B4E001C01D92AD38FF
:10010000B207E1F710E0C0EDD0E004C02297FE0195
:100110000E940C21C83BD107C9F70E9475180C94A6
:1001200062210C940000AF92BF92CF92DF92EF92C7
:10013000FF920F931F930E941118853E21E09207B2
:1001400044F0BC01611584E078072CF06FEF73E098
:1001500002C065EE71E0882777FD8095982F1F9289
:100160001F921F921F9224E6A22EB12CC12CD12CDB
:10017000EE24EA9413E0F12E00E010E025EE31E0E9
:1001800040E050E00E942E180F900F900F900F90BB
:10019000CB011F910F91FF90EF90DF90CF90BF9018
:1001A000AF900895EF92FF920F931F93CF93DF9339
:1001B000EC017B018A016CE271E00E94471AB701F1
:1001C000CE010E94121A6EEA71E0CE010E94471A17
:1001D0004AE050E0B801CE010E94351B6DE271E0AB
:1001E000CE01DF91CF911F910F91FF90EF900C9472
:1001F000471A0E941118BC01882777FD8095982F17
:100200000E94931F20E030E04AEF5EE30E94472007
:100210000895CF92DF92EF92FF920F931F93CF93A7
:10022000DF93EC018B0169017A016CE271E00E94BD
:10023000471AB801CE010E94121A6EEA71E0CE018F
:100240000E94471A22E030E0B701A601CE010E94C9
:100250003C1C6DE271E0CE01DF91CF911F910F91B7
:10026000FF90EF90DF90CF900C94471AEF92FF929F
:100270000F931F93CF93DF93CDB7DEB7A5970FB63C
:10028000F894DEBF0FBECDBF80E190E00E94F90080
:10029000609338047093390480933A0490933B043C
:1002A00081E190E00E94930090933D0480933C0490
:1002B000C2978CF480913E0490913F04892B59F4AD
:1002C00061E0809100010E94011781E090E090932D
:1002D0003F0480933E0480913C0490913D04C2977A
:1002E0007CF080913E0490913F04019749F4109274
:1002F0003F0410923E0460E0809100010E940117CB
:1003000087E494E00E9420046AE674E0CE010E9631
:100310000E94BF09CE010E960E94C806882309F4E8
:10032000FDC011E0CE010E960E947208882309F4E8
:10033000E5C0CE010E960E94EA06892B99F3CE0104
:100340000E960E94F5068A3009F0D3C0112349F3B6
:1003500069E371E0CE010E960E946E1A69E471E0C5
:10036000CE010E960E946E1A66E771E0CE010E96DF
:100370000E946E1A66E871E0CE010E960E946E1A17
:10038000CE010E960E945A1A69E971E0CE010E96CE
:100390000E94471A62E874E0CE0101960E946B0643
:1003A000BE016F5F7F4FCE010E960E94501A6DE224
:1003B00071E0CE010E960E94471A67EA71E0CE0105
:1003C0000E960E94471A62E071E0CE010E960E94DE
:1003D000471A6DE271E0CE010E960E94471A62EB59
:1003E00071E0CE010E960E94471A60913E04709112
:1003F0003F044AE050E0CE010E960E94351B6DE2AC
:1004000071E0CE010E960E94471AE0903C04F090F5
:100410003D0467EC71E0CE014B960E946A19888911
:1004200099899C838B838A899B89AC89BD898D83BB
:100430009E83AF83B8878E899F89A88DB98D898760
:100440009A87AB87BC8703E113E01A8309838A8DFF
:100450008D87A701BE01655E7F4FCE0101960E9488
:10046000D200CE014B960E94FC18209138043091A6
:10047000390440913A0450913B046FED71E0CE0194
:100480004B962AA33BA34CA35DA30E946A198889BB
:1004900099899C838B838A899B89AC89BD898D834B
:1004A0009E83AF83B8878E899F89A88DB98D8987F0
:1004B0009A87AB87BC871A8309838A8D8D872AA187
:1004C0003BA14CA15DA1BE01655E7F4FCE010196AF
:1004D0000E940901CE014B960E94FC186BEE71E060
:1004E000CE010E960E94471ACE010E960E945A1A0D
:1004F00005C08D3009F416CF10E014CF61E070E034
:1005000080E090E00E94B017CE010E960E94310864
:100510006DEE71E08FED94E00E946E1AA5960FB615
:10052000F894DEBF0FBECDBFDF91CF911F910F9129
:10053000FF90EF9008950F9300E020E040E060E02E
:1005400086E794E00E94C61808E528E548EA60ECD2
:1005500080E794E00E94C61861EB70E08AE694E0C0
:100560000E94FB086DE173E287E494E00E94290396
:100570006BE773E080E494E00F910C946A1980E4D7
:1005800094E00C94FC18CF93DF9300D000D000D0FF
:10059000CDB7DEB789E194E09A83898380917204B4
:1005A00090917304A0917404B09175048B839C8323
:1005B000AD83BE83AE014F5F5F4F67E171E082E8BC
:1005C00094E00E942D068AE694E00E94B70887E432
:1005D00094E00E946B0361E0809100010E94C816C4
:1005E00026960FB6F894DEBF0FBECDBFDF91CF9138
:1005F00008950F931F93CF93DF938B01EC01229605
:1006000069E371E0CE010E946E1A61E072E0CE01F2
:100610000E946E1A66E871E0CE010E946E1ACE0149
:100620000E945A1A69E172E0CE010E946E1A69E2D4
:1006300072E0CE010E946E1AB801CE010E946E1ABD
:1006400060E372E0CE01DF91CF911F910F910C9486
:100650006E1AEF92FF920F931F93CF93DF93CDB754
:10066000DEB729970FB6F894DEBF0FBECDBF8C0161
:100670000296688779870E94940786E090E00E943E
:10068000A41D7C01688579850E94FB08F801F18230
:10069000E08268EC74E0CE0101960E94E514B80196
:1006A000615F7F4F20E030E044E150E0CE010196F1
:1006B0000E94AA19CE0101960E94FC1829960FB635
:1006C000F894DEBF0FBECDBFDF91CF911F910F9188
:1006D000FF90EF900895CF92DF92EF92FF920F93E9
:1006E0001F93CF93DF93CDB7DEB768970FB6F8941B
:1006F000DEBF0FBECDBF6C0188EC94E00E94CE132C
:10070000882309F464C068EC74E0CE0101960E946D
:10071000A31468EC74E0CE0107960E946C1468EC98
:1007200074E0CE010D960E946C1468EC74E0CE016A
:1007300043960E94351488EC94E00E94E6139E01D3
:100740002F5F3F4F79018E01095F1F4F245F3F4F9D
:10075000AE014D5E5F4FBC0182E894E00E941C0533
:10076000D6018D919C91DC01ED91FC910480F58185
:10077000E02D099568E372E08FED94E00E94471A3E
:1007800062E874E0C7010E946B06B7018FED94E048
:100790000E94801A66E472E08FED94E00E94471A8E
:1007A00068EC74E0C7010E946C14B7018FED94E00F
:1007B0000E94801A6DE472E08FED94E00E94471A67
:1007C000B601615F7F4F8FED94E00E946E1A6896CC
:1007D0000FB6F894DEBF0FBECDBFDF91CF911F9152
:1007E0000F91FF90EF90DF90CF9008950F9300E06E
:1007F00020E040E060E08CE794E00E94C6180F9192
:100800000895EC016AE070E080E090E00E94B0178B
:10081000CE0102960E94310888E10FB6F8948093C9
:100820006000109260000FBE2FE088E190E00FB6EC
:10083000F894A895809360000FBE20936000FFCFCE
:100840006F927F928F929F92AF92BF92CF92DF92E0
:10085000EF92FF920F931F93CF93DF93CDB7DEB745
:100860002D970FB6F894DEBF0FBECDBF8C018DB6AD
:100870009EB66C018FE0C80ED11CF60101900020DD
:10088000E9F7EC19FD0978968DB79EB78E1B9F0B83
:100890000FB6F8949EBF0FBE8DBFEDB7FEB7319671
:1008A0005F01F801619171917F01CE0101960E9473
:1008B000BF098B819C81F801958384838D819E8102
:1008C000AF81B88586839783A087B18789859A850C
:1008D000AB85BC8582879387A487B5878D858687FE
:1008E000C7010E94C806882309F477C068E572E052
:1008F0008FED94E00E946E1AC7010E94720888234F
:1009000009F45CC0C7010E94EA06892BA9F33501EE
:10091000C7010E94F506F3018A3019F081933F0167
:10092000F7CF1082F5E0AF0EB11CC7010E94B106EF
:10093000B5018FED94E00E946E1AF601019000203F
:10094000E9F7CF0101973C016C187D08A301B601BE
:10095000C5010E942F21892B61F59FEF691A790A41
:100960006A0C7B1C45E050E069E672E0C3010E941E
:100970002F21892B31F46FE672E0C8010E94F90241
:1009800012C049E050E061EA72E0C3010E942F21E9
:10099000892B61F46BEA72E0C8010E94F90288ECCD
:1009A00094E00E94C813C8010E9401046DED72E03A
:1009B00002C06BEE72E0C8010E94F9026AE070E0CA
:1009C00080E090E00E94B017C7010E94310866EFF6
:1009D00072E08FED94E00E946E1A0FB6F8949EBEFE
:1009E0000FBE8DBE2D960FB6F894DEBF0FBECDBFE5
:1009F000DF91CF911F910F91FF90EF90DF90CF90FB
:100A0000BF90AF909F908F907F906F90089544E03B
:100A100050E0BC0181E090E00C94B60D44E050E061
:100A2000BC0185E090E00C94B60D44E050E0BC01C0
:100A30008FE090E00C94B60D8F929F92AF92BF9290
:100A4000CF92DF92EF92FF920F931F93CF93DF939A
:100A500000D0CDB7DEB74C016A01590180EB94E0BC
:100A600069837A830E946C0D46E050E069817A8147
:100A700089E090E00E94B60DC60102960E9415051D
:100A8000C80102960E940705C70102960E940E0542
:100A9000F5014281538164817581F401428353835E
:100AA000648375830F900F90DF91CF911F910F9109
:100AB000FF90EF90DF90CF90BF90AF909F908F907E
:100AC00008956F927F928F929F92AF92BF92CF9232
:100AD000DF92EF92FF920F931F93CF93DF93CDB7E7
:100AE000DEB76E970FB6F894DEBF0FBECDBF6C01B8
:100AF0005B017A014901380100E02FEF4FEF6FEF02
:100B0000CE0149960E94C61829E134E03A83298330
:100B10008B8D9C8DAD8DBE8D8B839C83AD83BE8371
:100B200038872F83F30182819381A481B5818987DE
:100B30009A87AB87BC873E872D87F401828193819A
:100B4000A481B5818F87988BA98BBA8B3C8B2B8B1B
:100B5000F70142815381648175814D8B5E8B6F8B70
:100B6000788FCE0101967C018E01095F1F4F9E0197
:100B7000235F3F4FAE014D5E5F4FB501C6010E943E
:100B80001C056E960FB6F894DEBF0FBECDBFDF9189
:100B9000CF911F910F91FF90EF90DF90CF90BF907A
:100BA000AF909F908F907F906F900895CF92DF923B
:100BB000EF92FF920F931F93CF93DF93CDB7DEB7E2
:100BC00068970FB6F894DEBF0FBECDBF6B017901F9
:100BD000DA0112964D915D916D917C9115974D8B37
:100BE0005E8B6F8B788FA9E1B4E0BA83A98321E093
:100BF000288F0D891E892F89388D0B831C832D83A7
:100C00003E83B887AF83F701028113812481358148
:100C100009871A872B873C87BE87AD874F87588BFC
:100C2000698B7A8B8E010F5F1F4F9E01295F3F4FAB
:100C3000AE01435F5F4FB6010E94610568960FB633
:100C4000F894DEBF0FBECDBFDF91CF911F910F9102
:100C5000FF90EF90DF90CF9008950F931F93CF9365
:100C6000DF93CDB7DEB762970FB6F894DEBF0FBE45
:100C7000CDBFDB01FA0142815381648175814F87C9
:100C8000588B698B7A8BE9E1F4E0FA83E98321E000
:100C90002A8B0F85188929893A890B831C832D8318
:100CA0003E83F887EF8349875A876B877C879E014D
:100CB0002F5F3F4FAE01495F5F4FBD010E94D605D8
:100CC00062960FB6F894DEBF0FBECDBFDF91CF9115
:100CD0001F910F910895CF93DF93EC010E94BC18F0
:100CE000BE016E5F7F4F44E050E08FE090E00E94D5
:100CF000F10ECE01DF91CF91089529E134E0FC019E
:100D000031832083FB014281538164817581FC0121
:100D1000428353836483758308950F9300E020E03A
:100D200040E060E082E994E00E94C61882E894E026
:100D30000F910C94BC18CF93DF931F92CDB7DEB701
:100D40006983DC01ED91FC910280F381E02D41E0AB
:100D500050E0BE016F5F7F4F09950F90DF91CF91FB
:100D60000895CF93DF93EC01E881F9810480F58148
:100D7000E02DCE010995892B41F0E881F9810680AB
:100D8000F781E02DCE010995EFCFDF91CF91089546
:100D900021E0FC018485843009F420E0822F08954D
:100DA0000F931F93CF93DF93EC018A018C858430DE
:100DB00021F00E948B10892B39F481E090E09B8315
:100DC0008A8380E090E001C0C801DF91CF911F913C
:100DD0000F910895FC016485643021F080EB94E06C
:100DE0000C945B0E80E090E00895CF93DF931F9208
:100DF000CDB7DEB741E050E0BE016F5F7F4FFC0131
:100E000084850E94DD10181619061CF4898190E073
:100E100002C08FEF9FEF0F90DF91CF910895FC01FB
:100E200084850C94DD100F931F93CF93DF931F9253
:100E3000CDB7DEB78C01DC01ED91FC910480F5812A
:100E4000E02D0995892B51F0BE016F5F7F4FF801AE
:100E500084850E942111898190E002C08FEF9FEF6D
:100E60000F90DF91CF911F910F910895CF92DF9254
:100E7000EF92FF920F931F93CF93DF93CDB7DEB71F
:100E8000AF970FB6F894DEBF0FBECDBF7C018B01CC
:100E90006A01CE0101960E94BC18CE0109960E94FB
:100EA0000A13CE018A960E94BC1862E874E0CE0153
:100EB00084960E947D06BE016C5D7F4FCE01019637
:100EC0000E943B0AAE01465D5F4FB801CE0101961C
:100ED0000E94A00C81309105C1F4D701ED91FC91E5
:100EE0000484F585E02D89E194E09DA38CA30CA5F5
:100EF0001DA52EA53FA50EA31FA328A739A7A601B0
:100F0000BE016C5D7F4FC7010995AF960FB6F8948F
:100F1000DEBF0FBECDBFDF91CF911F910F91FF902C
:100F2000EF90DF90CF900895FC011382128248EE7B
:100F300053E060E070E0448355836683778383E108
:100F400093E09183808384E084870895FC01262FB9
:100F50001382128248EE53E060E070E044835583D0
:100F60006683778383E193E0918380832487089568
:100F7000FC018485843039F090E0982F88278D5FBC
:100F80009B4F0C94E50D80E00895AF92BF92CF92F5
:100F9000DF92EF92FF920F931F93CF93DF93EC01B9
:100FA0005B016A018C85843009F04EC033E0E32E8A
:100FB00034E0F32E00E010E0C7010E94E50D81113E
:100FC00002C00C8709C08B7F8831D9F30F5F1F4F98
:100FD000F3940430110581F78C858430A9F12091B8
:100FE0001D0130911E012F5F3F4F2115310511F476
:100FF00020E034E030931E0120931D0140911D013B
:1010000050911E0120E061E00E94FA0FB5016E5F71
:101010007F4FA6018C850E944E10811103C084E091
:101020008C8712C0CE010E94B807873151F061E071
:1010300070E080E090E00E94B017CE010E94B807F7
:10104000ECCF81E090E002C080E090E0DF91CF91B2
:101050001F910F91FF90EF90DF90CF90BF90AF90D6
:101060000895CF92DF92EF92FF92CF93DF93EC013E
:101070008C85843081F10E9484100E9481176B015D
:101080007C01CE010E94B807882359F00E94811785
:101090006C197D098E099F09683E73408105910591
:1010A00098F0CE010E94B807882319F08C850E9421
:1010B000EC0FEC85F0E0EE0FFF1FE657FB4F1182BF
:1010C000108284E08C8707C061E070E080E090E0EF
:1010D0000E94B017D6CFDF91CF91FF90EF90DF90B5
:1010E000CF900895CF93DF93EC018C858430D1F0BD
:1010F000CE010E94B8078431A9F0882399F0883185
:1011000089F08C3169F4E881F9810480F581E02D62
:10111000CE01099521E0892B09F420E0822F03C03C
:1011200081E001C080E0DF91CF9108950F9300E04E
:1011300020E040E060E088E994E00E94C6180F914A
:101140000895CF93DF931F92CDB7DEB76983DC019B
:10115000ED91FC910280F381E02D41E050E0BE0171
:101160006F5F7F4F09950F90DF91CF910895EF92B8
:10117000FF920F931F93CF93DF93CDB7DEB72D97D9
:101180000FB6F894DEBF0FBECDBF7C0100E010E0CB
:10119000602FCE0101960E94A607CE0101960E9403
:1011A000B807811116C0F7014481558120E061E044
:1011B000802F0E94FA0F802F0E943A10F70184813D
:1011C0009581F801EE0FFF1FE657FB4F9183808357
:1011D00005C00F5F1F4F04301105D1F62D960FB6D5
:1011E000F894DEBF0FBECDBFDF91CF911F910F915D
:1011F000FF90EF900895FC01138212828FE293E03A
:1012000091838083758364830895BF92CF92DF9228
:10121000EF92FF920F931F93CF93DF93CDB7DEB77B
:101220002D970FB6F894DEBF0FBECDBF8C014AE8F4
:10123000C42E44E0D42EB12CE12CF12C6B2DCE0128
:1012400001960E94A607D6012D913D916D01F801EE
:101250008481958128173907B1F4CE0101960E9447
:10126000B807843169F0CE0101960E94B8078C312D
:1012700051F4CE0101960E94EA06892B99F003C031
:10128000EE24E394F12CB394F4E0BF12D7CFEF280F
:1012900071F4D801ED91FC910480F581E02DC80135
:1012A000099505C0CE0101960E943108ECCF2D961C
:1012B0000FB6F894DEBF0FBECDBFDF91CF911F9167
:1012C0000F91FF90EF90DF90CF90BF9008957F92A5
:1012D0008F929F92AF92BF92CF92DF92EF92FF9246
:1012E0000F931F93CF93DF93CDB7DEB72D970FB634
:1012F000F894DEBF0FBECDBF6C015B014A010E94B6
:1013000005095AE8E52E54E0F52E712C00E010E0B6
:10131000672DCE0101960E94A607F7012191319118
:101320007F01F601848195812817390731F4CE01B8
:1013300001960E94B8078731C9F07394F4E07F12D8
:10134000E7CFC8012D960FB6F894DEBF0FBECDBF14
:10135000DF91CF911F910F91FF90EF90DF90CF9091
:10136000BF90AF909F908F907F900895A401B5019A
:10137000CE0101960E94D006080F191FDECFBF9242
:10138000CF92DF92EF92FF920F931F93CF93DF9351
:10139000CDB7DEB72D970FB6F894DEBF0FBECDBF29
:1013A0008C016B01CB010E9405096AE8E62E64E01E
:1013B000F62EB12C6B2DCE0101960E94A607F701E7
:1013C000219131917F01F601848195812817390798
:1013D00061F4CE0101960E94B807873179F0CE0101
:1013E00001960E94B8078C3149F0B394F4E0BF1223
:1013F000E1CF64E0C8010E94A60721C0CE0101969A
:101400000E94EA06892B89F38B819C81F8019383E2
:1014100082838D819E81AF81B88584839583A683E5
:10142000B78349855A856B857C854087518762875C
:10143000738783E193E0918380838D858487C801DE
:101440002D960FB6F894DEBF0FBECDBFDF91CF91C2
:101450001F910F91FF90EF90DF90CF90BF90089574
:101460000F9300E020E040E060E08EE994E00E940D
:10147000C6180F910895FB014281538164817581E3
:10148000FC01428353836483758317821682089517
:10149000CF93FB0181918111FDCFFB0180E090E0B2
:1014A00020E030E0CAE06191662309F12430310583
:1014B00064F56E3271F48F3F910509F034F5DA016D
:1014C000A20FB31F12968C932F5F3F4F80E090E0E6
:1014D000EACFDC01CA9FC001CB9F900D1124772772
:1014E00067FD709560537109860F971FDCCF8F3FA2
:1014F000910509F054F4243031053CF4FA01E20F6F
:10150000F31F828381E090E002C080E090E0CF9101
:1015100008950F9300E020E040E060E084EA94E06A
:101520000E94C6180F910895AF92BF92CF92DF929A
:10153000EF92FF920F931F93CF93DF9300D01F92F0
:10154000CDB7DEB76C017B010E948117F60177836E
:1015500066838601085F1F4FB6016A5F7F4F42E0D6
:1015600050E0C8010E940C1281E090E09A838983C8
:1015700042E050E0BE016F5F7F4FC8010E940C1235
:1015800080E091E09A83898342E050E0BE016F5F82
:101590007F4FC8010E940C121A82198242E050E06B
:1015A000BE016F5F7F4FC8010E940C1242E050E005
:1015B000BE016F5F7F4FC8010E940C1242E050E0F5
:1015C000BE016F5F7F4FC8010E940C126701F601D8
:1015D0008081882311F1F7016F018191811115C07C
:1015E0005601AE18BF081A141B0494F4AB8241E0F4
:1015F00050E0BE016D5F7F4FC8010E940C12A50133
:10160000B701C8010E940C1203C08E3229F7E8CF3F
:101610007601FFEFEF1AFF0ADACF1B8241E050E0BC
:10162000BE016D5F7F4FC8010E940C12E12CFF24A8
:10163000F394FA82E98242E050E0BE016F5F7F4F8F
:10164000C8010E940C12FA82E98242E050E0BE0119
:101650006F5F7F4FC8010E940C1281E090E00F90F5
:101660000F900F90DF91CF911F910F91FF90EF900E
:10167000DF90CF90BF90AF9008954F925F926F929E
:101680007F928F929F92AF92BF92CF92DF92EF9212
:10169000FF920F931F93CF93DF93CDB7DEB763977E
:1016A0000FB6F894DEBF0FBECDBF7C015B016A01AF
:1016B0000E9481172B013C018701085F1F4F4501E4
:1016C000A12CB12CC8010E947F121816190694F0A3
:1016D0000E9481176419750986099709861697066D
:1016E000A806B906D0F062E370E080E090E00E94C6
:1016F000B017E8CFF7014281538164817581818DF4
:10170000928DA38DB48D481759076A077B0741F462
:10171000858D968DC59721F406C08FEF9FEFF9C098
:101720008EEF9FEFF6C0C8010E94BF110C970CF41A
:10173000EEC04CE050E0BE016F5F7F4FC8010E94D9
:1017400049128B819C819827892798279A8B898BAE
:10175000F7014681578129813A814217530711F4D5
:1017600097FD06C0C8010E94D9118CEF9FEFD1C030
:101770008F709270892B31F0C8010E94D9118BEFC4
:101780009FEFC7C0AF80B884BA24AB24BA24A11499
:10179000B10419F0E12CF12C23C0C8010E94D91129
:1017A0008AEF9FEFB6C041E050E0BE01635F7F4F1C
:1017B000C8010E9449128D8581111BC08D85811140
:1017C000F2CFC8010E942012C8010E942012C80155
:1017D0000E942012C8010E942012FFEFEF1AFF0A98
:1017E0008D819E81982789279827E816F906D8F2D7
:1017F0000AC08D859FEF980F9D878823F9F2C80155
:101800000E942012F6CFE12CF12C41E050E0BE0105
:101810006D5E7F4FC8010E9449128B89982F907C82
:1018200061F4882371F08B899FEF980F9B8B88233D
:1018300041F0C8010E942012F6CFC8010E94201278
:101840001B8A8B898111E1CF42E050E0BE01615FCC
:101850007F4FC8010E94491242E050E0BE01635F21
:101860007F4FC8010E944912C8010E942012C8017E
:101870000E942012C8010E942012C8010E9420125A
:1018800042E050E0BE016F5E7F4FC8010E944912E6
:101890008F8598898115914029F48D859E858115C4
:1018A000914019F0812C912C16C089899A89811553
:1018B000944031F0C8010E94D91187EF9FEF29C0F1
:1018C000B6016E5F7F4F44E050E0C8010E944912AC
:1018D00081E090E01EC089899A89982789279827F6
:1018E0008816990638F4C8010E9420122FEF821A38
:1018F000920AF1CF8FEFE81AF80AEA14FB0409F014
:1019000084CFC8010E94D91186EF9FEF02C08DEFEE
:101910009FEF63960FB6F894DEBF0FBECDBFDF9189
:10192000CF911F910F91FF90EF90DF90CF90BF90DC
:10193000AF909F908F907F906F905F904F900895A1
:101940008F929F92AF92BF92CF92DF92EF92FF92CF
:101950000F931F93CF93DF9300D000D000D0CDB76B
:10196000DEB78C015B016A010E94480A4C010097B6
:1019700009F05FC0F80142815381648175818091D3
:10198000A6049091A704A091A804B091A9044817B7
:1019900059076A077B0709F450C00E948117780134
:1019A000F8E0EF0EF11C6F7077277C5FC7010E9493
:1019B000D012813009F045C089E194E09A8389838F
:1019C000F80182819381A481B5818B839C83AD834F
:1019D000BE8345E350E0BE016F5F7F4FC7010E94A9
:1019E0000012892B19F4812C912C1FC0B501C8015C
:1019F0000E94940A892BB9F3C7010E940812892B0F
:101A000091F333E0A32EB12CA60168E873E1C8017D
:101A10000E943D0B4C01F1E0AF1AB108A114B104D2
:101A200021F08F3F2FEF920779F3C7010E94EB114E
:101A300008C088248394912C04C09EEF892E992499
:101A40009A94C40126960FB6F894DEBF0FBECDBFA0
:101A5000DF91CF911F910F91FF90EF90DF90CF908A
:101A6000BF90AF909F908F9008950F9300E020E07B
:101A700040E060E08AEA94E00E94C6180F91089561
:101A80008EBD0DB407FEFDCF8EB508952A9808953A
:101A90002A9A08951F93CF93DF9300D0CDB7DEB776
:101AA000182F6A8399830E94460D80EF0E94400D93
:101AB0009981892F0E94400D812F0E94400D6A81DB
:101AC000862F0E94400D0E94480D81E00F900F90DC
:101AD000DF91CF911F910895CF93DF93EC016CE2DA
:101AE00071E080E090E00E94B0170E944315229AB6
:101AF00060E880E090E00E944A0D65E58BE190E0AF
:101B00000E944A0D65E58AE190E00E944A0D80E05E
:101B100090E49983888380E090E69987888780E0C5
:101B200098E49B838A8380E098E69B878A8780E09D
:101B300090E59D838C8380E090E79D878C8780E093
:101B400098E59F838E8380E098E79F878E87DF915B
:101B5000CF910895FB01282F30E02C5F3F4F922F4B
:101B60008827642F8E0F9F1F0C944A0DCF92DF920F
:101B7000EF92FF920F931F93CF93DF93EC017A01C3
:101B80008B016C01C40ED51ECC15DD05A1F00E94A1
:101B9000460D80EF0E94400D8D2F0E94400D8C2F2E
:101BA0000E94400D2196F80181918F010E94400D05
:101BB0000E94480DE9CFC701DF91CF911F910F918E
:101BC000FF90EF90DF90CF9008951F93CF93DF9316
:101BD0001F92CDB7DEB7182F99830E94460D8FE074
:101BE0000E94400D9981892F0E94400D812F0E94F3
:101BF000400D80E00E94400D89830E94480D89813C
:101C00000F90DF91CF911F910895282F30E02C5F26
:101C10003F4F922F8827860F971F0C94E50D1F9337
:101C2000CF93DF93182F60E270E00E94050EC82F5B
:101C3000D0E061E270E0812F0E94050EDC2FCC27FE
:101C40009E01282BC901DF91CF911F910895FF922A
:101C50000F931F93CF93DF93F62EC0E0D0E08F2D2C
:101C60000E940F0E8C01009721F08F2D0E940F0E05
:101C7000EC01C017D10799F7CE01DF91CF911F91E9
:101C80000F91FF9008951F93CF93DF93182F66E273
:101C900070E00E94050EC82FD0E067E270E0812F4F
:101CA0000E94050EDC2FCC279E01282BC901DF9155
:101CB000CF911F910895FF920F931F93CF93DF93BE
:101CC000F62EC0E0D0E08F2D0E94430E8C010097CD
:101CD00021F08F2D0E94430EEC01C017D10799F718
:101CE000CE01DF91CF911F910F91FF9008956F92D8
:101CF0007F929F92AF92BF92CF92DF92EF92FF922C
:101D00000F931F93CF93DF931F92CDB7DEB7D82EDB
:101D1000962E3A01590164E270E0892D99830E9460
:101D2000050EE82EF12C65E270E0892D0E94050E6B
:101D3000FE2CEE24E82AE60CF71C970137706D2C78
:101D40009981792E690C711C690C711CD301ED917C
:101D5000FC91E20FF31FC901800F911F8130984061
:101D6000A0F0C12C48E0D42EC21AD30AA601B501B6
:101D7000CF010E94B60DA8014C195D09B5016C0D8B
:101D80007D1DF3018081918103C0A801B501CF01C0
:101D90000E94B60DE00EF11E4F2D64E270E0892D19
:101DA0000E94AA0D4E2D65E270E0892D0F90DF9103
:101DB000CF911F910F91FF90EF90DF90CF90BF9048
:101DC000AF909F907F906F900C94AA0D0F931F93EC
:101DD00089019A0140E050E00E94770E1F910F9117
:101DE0000895CF92DF92EF92FF920F931F93CF93BC
:101DF000DF93EC017A018B016C01C40ED51ECC156A
:101E0000DD05A9F00E94460D8FE00E94400D8D2F48
:101E10000E94400D8C2F0E94400D219680E00E9470
:101E2000400DF80181938F010E94480DE8CFC70152
:101E3000DF91CF911F910F91FF90EF90DF90CF90A6
:101E40000895CF92DF92EF92FF920F931F93CF935B
:101E5000DF9369015770EC01C60FD11DC60FD11D6C
:101E600088859985840F951F9A01200F311F213095
:101E7000384090F0E12C68E0F62EE41AF50AA7014C
:101E8000B6010E94F10EA8014E195F09B6016E0D50
:101E90007F1D8885998502C0A801B601DF91CF9189
:101EA0001F910F91FF90EF90DF90CF900C94F10E67
:101EB0008F929F92AF92BF92CF92DF92EF92FF925A
:101EC0000F931F93CF93DF936C01962E5A017901E4
:101ED000802E68E270E0892D0E94050EC82FD0E0A8
:101EE00069E270E0892D0E94050EDC2FCC27C82BFB
:101EF00087019501AE01692DC6010E94210F811055
:101F00001AC0CE0DDF1D4D2F68E270E0892D0E94B2
:101F1000AA0D4C2F69E270E0892DDF91CF911F91BE
:101F20000F91FF90EF90DF90CF90BF90AF909F9078
:101F30008F900C94AA0DDF91CF911F910F91FF907C
:101F4000EF90DF90CF90BF90AF909F908F900895CB
:101F5000CF93C62F61E070E08C2F0E94AA0D61E044
:101F600070E08C2F0E94050E8111F9CFCF9108955A
:101F700090E0982F882744E050E0845F9B4F0C94BA
:101F8000B60D62E070E00C94050ECF93DF93C82F7E
:101F9000D62F472F64E070E00E94AA0D4D2F65E018
:101FA00070E08C2FDF91CF910C94AA0D462F62E048
:101FB00070E00C94AA0DCF93DF93C82FD62F472F34
:101FC00060E170E00E94AA0D4D2F61E170E08C2F5E
:101FD000DF91CF910C94AA0DCF93C82F40E150E030
:101FE000682F80EB94E00E94A80F6FEF8C2FCF91A9
:101FF0000C94D60FEF92FF921F93CF93DF9300D0F4
:10200000CDB7DEB7182F7A018FEF860F853048F5F0
:10201000812F2A8369830E94EC0F2A816981462FD0
:10202000422B60E070E0812F0E94AA0DE114F104C0
:1020300011F0B7010AC06091C0047091C1046F5FD4
:102040007F4F7093C1046093C004812F0E94C50F1D
:1020500041E050E0612F80EB94E00E94A80F81E006
:1020600001C080E00F900F90DF91CF911F91FF9002
:10207000EF900895CF93C82F63E070E00E94050EA3
:10208000833149F442E050E06C2F80EB94E00E94F1
:10209000A80F81E001C080E0CF9108951F93CF93F6
:1020A000DF93182FFB01EA0180818F3F51F481817A
:1020B0008F3F91F482818F3F79F483818F3F61F468
:1020C0001EC0811109C08181811106C082818111E8
:1020D00003C08381882399F0209789F0BF01812F65
:1020E0000E94B80FBE01812F0E94DB0F44E050E038
:1020F000612F80EB94E00E94A80F81E001C080E096
:10210000DF91CF911F91089548E050E0682F80EB58
:1021100094E00C94A80FDF92EF92FF920F931F931D
:10212000CF93DF93D82E8B01EA01413088E0580726
:1021300010F0C0E0D8E06D2D80EB94E00E94270EF7
:102140007C0163E070E08D2D0E94050E873111F057
:102150008C3121F4EC16FD0670F302C0C0E0D0E033
:102160009E01A8016D2D80EB94E00E94E60E40E2F6
:1021700050E06D2D80EB94E00E94A80F8D2D0E9401
:10218000C10F84FD0DC063E070E08D2D0E94050E2F
:102190008111F4CF8D2D0E94EC0F80E090E005C0FE
:1021A00060E18D2D0E94D60FCE01DF91CF911F915E
:1021B0000F91FF90EF90DF900895DF92EF92FF92E2
:1021C0000F931F93CF93DF93D82E7B018A01682F43
:1021D00080EB94E00E945B0EEC01009799F463E0C1
:1021E00070E08D2D0E94050E843111F1882301F1DC
:1021F000C1E0D0E08C3111F4C0E0D0E0D195C195C0
:10220000D10916C0081719070CF4E8011C161D06A1
:102210007CF400E09E01A7016D2D80EB94E00E940C
:10222000580F40E450E06D2D80EB94E00E94A80F21
:10223000CE01DF91CF911F910F91FF90EF90DF9032
:1022400008950F93AB0101E021E030E0682F80EBAF
:1022500094E00E94580F81E090E00F910895BF92A2
:10226000CF92DF92EF92FF920F931F93CF93DF9362
:10227000B82E7B016A01E901682F80EB94E00E948F
:10228000270E8C179D0730F46B2D80EB94E00E9495
:10229000270EEC018E019601A7016B2D80EB94E0D7
:1022A0000E94770ECE01DF91CF911F910F91FF9089
:1022B000EF90DF90CF90BF9008951F93CF93DF935F
:1022C000182FFB01EA018081811109C081818111F0
:1022D00006C08281811103C08381882369F0209721
:1022E00059F0BF01812F0E94B80FBE01812F0E94BB
:1022F000DB0F81E090E002C080E090E0DF91CF91C1
:102300001F910895CF93C82F40E250E0682F80EBD3
:1023100094E00E94A80F8C2F0E94C10F84FD0CC076
:102320008C2F0E94C10F83FFF6CF68E18C2F0E9493
:10233000D60F80E090E006C060E18C2F0E94D60F9F
:1023400081E090E0CF910895DC01ED91FC91008C4B
:10235000F18DE02D099429E134E0FC0131832083E3
:10236000FB014189528963897489FC01428353834B
:10237000648375830895FC01858996890895FC011D
:10238000818D928D0895CF93DF931F92CDB7DEB7E5
:102390006983DC01ED91FC910280F381E02D41E045
:1023A00050E0BE016F5F7F4F09950F90DF91CF9195
:1023B0000895CF93DF93EC01898D9A8D892B41F09D
:1023C000E881F9810680F781E02DCE010995F4CFEF
:1023D000DF91CF910895CF93DF93EC018C8584300A
:1023E00061F00E94EC0FEC85F0E0EE0FFF1FE65766
:1023F000FB4F1182108284E08C87DF91CF9108958A
:10240000FC01108E178A6E5F7F4F84850C945D11DE
:10241000FC0184850C948211CF93DF93EC019A0127
:102420008F89988DAB01BC018C850E942F112F895B
:10243000388D280F391F388F2F8BDF91CF9108955A
:102440000F931F93CF93DF931F92CDB7DEB78C010D
:10245000FC01818D928D892B59F041E050E0BE0145
:102460006F5F7F4F84850E94DD10181619061CF0DF
:102470008FEF9FEF08C0F801818D928D0197928FA9
:10248000818F898190E00F90DF91CF911F910F9103
:102490000895CF93DF93EC01898D9A8D009719F4FD
:1024A0008FEF9FEF10C04817590708F0AC018C85DB
:1024B0000E94DD10181619069CF7298D3A8D281BED
:1024C000390B3A8F298FDF91CF910895CF93DF9306
:1024D0001F92CDB7DEB7FC01218D328D232B49F041
:1024E000BE016F5F7F4F84850E942111898190E03A
:1024F00002C08FEF9FEF0F90DF91CF9108950F9360
:102500001F93CF93DF93CDB7DEB728970FB6F8941C
:10251000DEBF0FBECDBF8C01DC01ED91FC910284CA
:10252000F385E02D0995F801648580EB94E00E9425
:102530005B0E892B41F148E050E0BE016F5F7F4F99
:10254000D8011C968C910E94DD1018161906ECF427
:10255000BE016F5F7F4FC8010F960E94E2188D8108
:1025600090E0982F88272E81820F911DF801968B7D
:10257000858B8F8190E0982F88272885820F911D69
:10258000928F818F02C080E090E028960FB6F89479
:10259000DEBF0FBECDBFDF91CF911F910F91089588
:1025A000CF92DF92EF92FF920F931F93CF93DF931F
:1025B000EC016B018C85843019F543E0E42E44E096
:1025C000F42E00E010E0C7010E94E50D811102C069
:1025D0000C8708C08831E1F30F5F1F4FF39404307C
:1025E000110589F78C85843059F0DE86CD861A8EE8
:1025F000198E20E0A60162E00E94FA0F81E001C07E
:1026000080E0DF91CF911F910F91FF90EF90DF90CD
:10261000CF900895FC011382128248EE53E060E0EF
:1026200070E0448355836683778389E393E09183E5
:10263000808384E08487CF010F960C94BC18CF92DE
:10264000DF92EF92FF920F931F93CF93DF93CDB75B
:10265000DEB7AF970FB6F894DEBF0FBECDBF7C01DB
:102660008B016A01CE0101960E94BC18CE01099629
:102670000E940A13CE018A960E94BC1862E874E098
:10268000CE0184960E947D06BE016C5D7F4FCE0117
:1026900001960E943B0AAE01465D5F4FB801CE0134
:1026A00001960E94A00C81309105C1F4D701ED91F3
:1026B000FC910088F189E02D89E194E09DA38CA331
:1026C0000CA51DA52EA53FA50EA31FA328A739A7BE
:1026D000A601BE016C5D7F4FC7010995AF960FB68D
:1026E000F894DEBF0FBECDBFDF91CF911F910F9148
:1026F000FF90EF90DF90CF9008950F9300E020E0DF
:1027000040E060E082EC94E00E94C6180F910895CA
:102710007F928F929F92AF92BF92CF92DF92EF9271
:10272000FF920F931F93CF93DF9300D000D0CDB7CC
:10273000DEB76C015B01742E8E010F5F1F4FE12C21
:10274000F12C4801472DB701C5010E945915F80128
:1027500081938F01FFEFEF1AFF0A84E0E816F1047E
:1027600089F7B401C6010E94D218C6010F900F90DC
:102770000F900F90DF91CF911F910F91FF90EF90ED
:10278000DF90CF90BF90AF909F908F907F900895F3
:1027900020E04FEF62E070E00C945E15CF93DF9382
:1027A000EC0140E063E070E00E945915853551F47A
:1027B00040E064E070E0CE010E9459158A3A11F4BD
:1027C00081E001C080E0DF91CF910895AF92BF9288
:1027D000CF92DF92EF92FF920F931F93CF93DF93ED
:1027E00000D000D000D0CDB7DEB76C0186E0E6E2C5
:1027F000F1E0DE01119601900D928A95E1F786E0F5
:1028000090E00E9478155C0186E0FE013196D501CA
:1028100001900D928A95E1F7C6010E94CE1388239C
:1028200091F08501E12CF12C4DE0B701C6010E9429
:102830005915F80181938F01FFEFEF1AFF0A86E027
:10284000E816F10489F7C50126960FB6F894DEBFA5
:102850000FBECDBFDF91CF911F910F91FF90EF90F1
:10286000DF90CF90BF90AF900895CF92DF92EF921C
:10287000FF920F93CF93DF9300D000D000D0CDB75D
:10288000DEB77C016B0100E821E048EA60EC0E94C1
:10289000C618C6010E94CE13882379F043E1B60121
:1028A000CE0101960E9488134B815C816D817E81EF
:1028B000F7014283538364837583C70126960FB65D
:1028C000F894DEBF0FBECDBFDF91CF910F91FF9087
:1028D000EF90DF90CF900895CF92DF92EF92FF922A
:1028E0000F93CF93DF9300D000D000D0CDB7DEB7E9
:1028F0007C016B0101E021E048EA60EC0E94C6180F
:10290000C6010E94CE13882379F045E0B601CE01BE
:1029100001960E9488134B815C816D817E81F70155
:102920004283538364837583C70126960FB6F89458
:10293000DEBF0FBECDBFDF91CF910F91FF90EF9023
:10294000DF90CF900895CF92DF92EF92FF920F9396
:10295000CF93DF9300D000D000D0CDB7DEB77C019D
:102960006B0100E02FEF4FEF6FEF0E94C618C6011A
:102970000E94CE13882379F049E0B601CE0101967A
:102980000E9488134B815C816D817E81F7014283B7
:10299000538364837583C70126960FB6F894DEBF10
:1029A0000FBECDBFDF91CF910F91FF90EF90DF90E1
:1029B000CF90089540E06AE170E00E94591591E0DF
:1029C0008C3C09F090E0892F0895BF92CF92DF925E
:1029D000EF92FF920F931F93CF93DF93CDB7DEB7A4
:1029E000A5970FB6F894DEBF0FBECDBF8C016B016B
:1029F0006BE773E00E946A19C6010E94DA1488230B
:102A0000F1F0B12CEB2CF12C4BE1B701C6010E9487
:102A10005915882349F0B394E1E0F0E0EC0FFD1F75
:102A2000EE0DFF1D8083EECFE1E0F0E0EC0FFD1F27
:102A3000EE0DFF1D1082BE016F5F7F4F02C061EC83
:102A400073E0C8010E948119C801A5960FB6F894D9
:102A5000DEBF0FBECDBFDF91CF911F910F91FF90D1
:102A6000EF90DF90CF90BF9008950F9300E020E0AB
:102A700040E060E089EC94E00E94C61888EC94E0A5
:102A80000F910C94641561E08AE00E94011761E0E7
:102A90008AE00E94C8168CB580618CBD8CB58064BC
:102AA0008CBD61E08DE00E94C81661E08BE00C9463
:102AB000C816CB01840F911D0C944C21CB01642FBF
:102AC000820F911D0C945421CF93DF93EC0182E08F
:102AD00090E00E944C218E3E19F480E4888301C06E
:102AE0001882DF91CF9108958FEC94E00C946415D7
:102AF000CF93DF938230910510F482E090E0E09173
:102B00008B05F0918C0520E030E0A0E0B0E030973C
:102B100039F14081518148175907B8F048175907D2
:102B200071F482819381109729F013969C938E9370
:102B300012972CC090938C0580938B0527C021158C
:102B4000310531F04217530718F0A901DB0101C02C
:102B5000EF019A01BD01DF010280F381E02DD7CFA3
:102B600021153105F9F0281B390B2430310580F48B
:102B70008A819B816115710521F0FB01938382831A
:102B800004C090938C0580938B05FE01329644C05F
:102B9000FE01E20FF31F8193919322503109398393
:102BA00028833AC02091890530918A05232B41F46E
:102BB000209121013091220130938A0520938905CB
:102BC00020911F01309120012115310541F42DB7CD
:102BD0003EB74091230150912401241B350BE09115
:102BE0008905F0918A05E217F307A0F42E1B3F0B2D
:102BF0002817390778F0AC014E5F5F4F241735076F
:102C000048F04E0F5F1F50938A05409389058193CA
:102C1000919302C0E0E0F0E0CF01DF91CF91089501
:102C2000CF93DF93009709F487C0FC01329713829A
:102C30001282C0918B05D0918C05209781F4208160
:102C40003181280F391F8091890590918A0582175B
:102C5000930779F5F0938A05E09389056DC0DE014D
:102C600020E030E0AE17BF0750F412964D915C9112
:102C700013979D014115510509F1DA01F3CFB38393
:102C8000A28340815181840F951F8A179B0771F49D
:102C90008D919C911197840F951F0296918380834B
:102CA00012968D919C911397938382832115310500
:102CB00029F4F0938C05E0938B053EC0D90113965F
:102CC000FC93EE9312974D915D91A40FB51FEA17F7
:102CD000FB0779F480819181840F951F0296D901B9
:102CE00011969C938E938281938113969C938E93DD
:102CF0001297E0E0F0E08A819B81009719F0FE01D5
:102D0000EC01F9CFCE01029628813981820F931F01
:102D10002091890530918A052817390769F4309781
:102D200029F410928C0510928B0502C01382128236
:102D3000D0938A05C0938905DF91CF9108958330A0
:102D400081F028F4813099F08230A1F00895863026
:102D5000A9F08730B9F08430D1F4809180008F7D64
:102D600003C0809180008F7780938000089584B5A0
:102D70008F7702C084B58F7D84BD08958091B000A7
:102D80008F7703C08091B0008F7D8093B00008954D
:102D9000CF93DF9390E0FC01E458FF4F2491FC01B6
:102DA000E057FF4F8491882349F190E0880F991FE5
:102DB000FC01E255FF4FA591B4918C559F4FFC014A
:102DC000C591D4919FB7611108C0F8948C9120955A
:102DD00082238C93888182230AC0623051F4F89454
:102DE0008C91322F309583238C938881822B88831A
:102DF00004C0F8948C91822B8C939FBFDF91CF916C
:102E000008950F931F93CF93DF931F92CDB7DEB733
:102E1000282F30E0F901E859FF4F8491F901E45877
:102E2000FF4F1491F901E057FF4F04910023C9F0BF
:102E3000882321F069830E949F166981E02FF0E0CA
:102E4000EE0FFF1FEC55FF4FA591B4919FB7F8947B
:102E50008C91611103C01095812301C0812B8C934B
:102E60009FBF0F90DF91CF911F910F9108951F92F7
:102E70000F920FB60F9211242F933F938F939F932E
:102E8000AF93BF938091D1049091D204A091D304C9
:102E9000B091D4043091D00423E0230F2D3720F4D7
:102EA0000196A11DB11D05C026E8230F0296A11DA4
:102EB000B11D2093D0048093D1049093D204A093A9
:102EC000D304B093D4048091D5049091D604A091FA
:102ED000D704B091D8040196A11DB11D8093D504EB
:102EE0009093D604A093D704B093D804BF91AF9128
:102EF0009F918F913F912F910F900FBE0F901F9038
:102F000018952FB7F8946091D1047091D2048091F4
:102F1000D3049091D4042FBF08953FB7F8948091C3
:102F2000D5049091D604A091D704B091D80426B5C9
:102F3000A89B05C02F3F19F00196A11DB11D3FBFF1
:102F40006627782F892F9A2F620F711D811D911D81
:102F500042E0660F771F881F991F4A95D1F70895A1
:102F6000CF92DF92EF92FF92CF93DF936B017C01C0
:102F70000E948D17EB01C114D104E104F10479F032
:102F80000E948D176C1B7D0B683E7340A0F381E09F
:102F9000C81AD108E108F108C851DC4FECCFDF9125
:102FA000CF91FF90EF90DF90CF900895789484B503
:102FB000826084BD84B5816084BD85B5826085BD35
:102FC00085B5816085BDEEE6F0E08081816080831B
:102FD000E1E8F0E0108280818260808380818160FE
:102FE0008083E0E8F0E0808181608083E1EBF0E0C5
:102FF000808184608083E0EBF0E080818160808369
:10300000EAE7F0E080818460808380818260808351
:103010008081816080838081806880831092C1007C
:1030200008958E3008F08E5087702091250190E42D
:10303000299F90011124822B80937C0080917A003B
:10304000806480937A0080917A0086FDFCCF809125
:1030500078002091790090E0922B08954F925F9232
:103060006F927F92AF92BF92CF92DF92EF92FF92D8
:103070000F931F93CF93DF93CDB7DEB729013A01AA
:10308000621B730B840B950B29893A894B895C89E8
:103090002A193B094C095D09298B3A8B4B8B5C8BB8
:1030A0009B01AC0169897A898B899C890E94AE2039
:1030B000E418F50806091709A80197010E94E02005
:1030C0002A0D3B1D4C1D5D1DCA01B901DF91CF9139
:1030D0001F910F91FF90EF90DF90CF90BF90AF9036
:1030E0007F906F905F904F9008950E94D6170E9436
:1030F000C302CAE0DDE10E9436012097E1F30E949D
:103100000A1DF9CFAF92BF92CF92DF92EF92FF925A
:103110000F931F93CF93DF936C017B01C0E0D0E04E
:1031200000E010E0F601EC0FFD1F4AE050E0628184
:10313000C7010E944A1B5C016EE2C7010E94491A46
:103140008A0D9B1D080F191F2196C330D10551F719
:103150004AE050E0F6016581C7010E944A1B800FDA
:10316000911FDF91CF911F910F91FF90EF90DF9012
:10317000CF90BF90AF90089529E134E0FC013183F6
:103180002083128213821482158208950F93FC010A
:1031900089E194E091838083628343832483058360
:1031A0000F91089529E134E0FC0131832083FB0174
:1031B0004081518162817381FC0142835383648326
:1031C00075830895FB014081518162817381FC0107
:1031D0004283538364837583089589E194E09093D7
:1031E000DA048093D9041092DB041092DC0410926C
:1031F000DD041092DE040895FC01808191810C941D
:103200001016CF93DF93EC0188819981009711F01C
:103210000E941016198218821D821C821B821A823B
:10322000DF91CF9108950F931F93CF93DF93EC011C
:103230008B016F5F7F4F888199810E94A61D009747
:1032400031F0998388831B830A8381E001C080E089
:10325000DF91CF911F910F910895CF93DF93EC01F0
:1032600088819981892B29F08A819B81861797070C
:1032700060F4CE010E941319882341F08C819D8156
:10328000892B19F4E881F981108281E0DF91CF91D7
:103290000895EF92FF920F931F93CF93DF93EC016A
:1032A0007B018A01BA010E942D19811104C0CE014F
:1032B0000E94011907C01D830C83B7018881998181
:1032C0000E942821CE01DF91CF911F910F91FF9095
:1032D000EF900895FC0111821082138212821582F0
:1032E000148216826115710559F0FB0101900020CE
:1032F000E9F7AF0141505109461B570B0C9449198E
:103300000895CF93DF93EC016115710561F0FB0126
:1033100001900020E9F7AF0141505109461B570BBE
:103320000E94491902C00E940119CE01DF91CF917C
:103330000895FC01248135816217730748F4808168
:103340009181009729F0FC01E60FF71F8081089515
:1033500080E008950F931F93CF93DF93EB01411506
:103360005105E9F02097D9F0FC0164817581261799
:103370003707A0F4621B730B8A0101501109601713
:10338000710708F48B01FC0160817181620F731F6A
:10339000A801CE010E943D21C00FD11F1882DF91EC
:1033A000CF911F910F910895CF92DF92EF92FF92EC
:1033B0000F931F93CF93DF936C017A01EB01E60E1D
:1033C000F71E00E010E0CE15DF0561F06991D6012F
:1033D000ED91FC910190F081E02DC6010995080F57
:1033E000191FF1CFC801DF91CF911F910F91FF906D
:1033F000EF90DF90CF9008956115710581F0DB01AA
:103400000D900020E9F7AD0141505109461B570BC3
:10341000DC01ED91FC910280F381E02D099480E0C4
:1034200090E00895AF92BF92CF92DF92EF92FF9219
:103430000F931F93CF93DF937C016B01C0E0D0E02B
:1034400000E010E0D60114968D919C911597C81755
:10345000D90788F4D701ED91FC91A080B180BE011D
:10346000C6010E949919682FC701F5010995080F37
:10347000191F2196E7CFC801DF91CF911F910F91BE
:10348000FF90EF90DF90CF90BF90AF9008950C9495
:10349000FC19DC01ED91FC910190F081E02D099483
:1034A000DB01ED91FC9111970190F081E02DBC01C1
:1034B000CD0109940F931F93CF93DF93EC016DE03F
:1034C0000E94491A8C016AE0CE010E94491A800FBD
:1034D000911FDF91CF911F910F9108950F931F932B
:1034E000CF93DF93EC010E94FC198C01CE010E9466
:1034F0005A1A800F911FDF91CF911F910F9108955C
:103500000F931F93CF93DF93EC010E94501A8C010D
:10351000CE010E945A1A800F911FDF91CF911F9107
:103520000F9108958F929F92AF92BF92CF92DF92A8
:10353000EF92FF920F931F93CF93DF93CDB7DEB738
:10354000A1970FB6F894DEBF0FBECDBF7C01C42E8D
:10355000E52FCB01D22E19A221E02D1510F02AE083
:10356000D22E8E010F5D1F4F8D2C912CA12CB12CD2
:103570006C2D7E2FA50194010E94BE208C2DD29E21
:1035800080191124015011098A3014F4805D01C0A2
:10359000895CF8018083211531054105510521F031
:1035A000C22EE32FCA01E4CFB801C7010E94FC1963
:1035B000A1960FB6F894DEBF0FBECDBFDF91CF91BD
:1035C0001F910F91FF90EF90DF90CF90BF90AF9041
:1035D0009F908F900895CF92DF92EF92FF920F937A
:1035E0001F93CF93DF93EC016A017B012115310515
:1035F00079F4E881F9810190F081E02D642FDF9169
:10360000CF911F910F91FF90EF90DF90CF90099491
:103610002A303105E9F477FF1AC06DE20E94491A99
:103620008C0144275527BA014C195D096E097F09A1
:103630002AE0CE010E94921A800F911FDF91CF9154
:103640001F910F91FF90EF90DF90CF9008952AE0A7
:10365000B701A601CE01DF91CF911F910F91FF908D
:10366000EF90DF90CF900C94921A9A01AB016627ED
:1036700057FD6095762F0C94EB1A2115310541F416
:10368000DC01ED91FC910190F081E02D642F099413
:103690000C94921A9A01462F50E060E070E00C946E
:1036A0003D1B4F925F926F927F928F929F92AF924B
:1036B000BF92CF92DF92EF92FF920F931F93CF931F
:1036C000DF93EC016A017B01B22E9A01AB01C701C5
:1036D000B6010E94AA20882319F06BE174E027C08C
:1036E00026013701E89477F82FEF3FEF4FE75FE7C8
:1036F000C301B2010E94AA2081110DC02FEF3FEF3C
:103700004FE75FE7C301B2010E94F41E18161CF4D4
:103710006FE174E00CC02FEF3FEF4FE75FE4C701AC
:10372000B6010E9443201816ACF463E274E0CE01A7
:10373000DF91CF911F910F91FF90EF90DF90CF908D
:10374000BF90AF909F908F907F906F905F904F90C1
:103750000C94FC192FEF3FEF4FE75FECC701B60168
:103760000E94F41E87FDE1CF20E030E0A901C701EF
:10377000B6010E94F41E87FF0AC06DE2CE010E94CE
:10378000491A8C01F7FAF094F7F8F09402C000E0BF
:1037900010E0A12C60E070E080E09FE3AB1441F00A
:1037A00020E030E040E251E40E94F81EA394F6CFFE
:1037B0009B01AC01C701B6010E94901E6B017C0108
:1037C0000E94651F2B013C010E94911F9B01AC01CF
:1037D000C701B6010E948F1E6B017C012AE0B30174
:1037E000A201CE010E94921A080F191FBB2039F0C6
:1037F0006FE773E0CE010E94FC19080F191F7B2CA4
:10380000772041F120E030E040E251E4C701B60109
:103810000E9447206B017C010E94601F4B01AA247B
:1038200097FCA094BA2C2AE030E0B501A401CE01A7
:103830000E94EB1A080F191FC501B4010E94931FC3
:103840009B01AC01C701B6010E948F1E6B017C0178
:103850007A94D6CFC801DF91CF911F910F91FF903D
:10386000EF90DF90CF90BF90AF909F908F907F9020
:103870006F905F904F9008950C94511BFC0124852C
:103880003585F901E05CFF4F80819181329620817E
:103890003181821B930B8F7399270895FC018485D6
:1038A0009585FC01E05CFF4F40815181329620817B
:1038B00031814217530741F00190F081E02DE80F6C
:1038C000F91F808190E008958FEF9FEF0895FC012C
:1038D00084859585FC01E05CFF4F408151813296E3
:1038E000208131814217530779F0A081B181A80F5F
:1038F000B91F8C91208131812F5F3F4F2F73332768
:103900003183208390E008958FEF9FEF0895FC01AD
:1039100081A1882329F0A489B5898C9186FFFBCFEA
:1039200011A20895CF93DF93FC0126853785D90135
:10393000A05CBF4F8D919C91119701968F73992731
:10394000E901CE5BDF4F4881598184179507D9F390
:103950000D90BC91A02DA20FB31F6C93A685B785C7
:10396000A05CBF4F11969C938E93A689B7892C912A
:1039700081E090E0078C02C0880F991F0A94E2F75B
:10398000282B2C9381E081A30488F589E02D808188
:103990008064808381E090E0DF91CF910895089565
:1039A0001F920F920FB60F9211242F933F934F93B4
:1039B0008F939F93EF93FF938091C00082FD1CC073
:1039C0004091C600809185059091860501968F7380
:1039D000992720918705309188058217930771F008
:1039E000E0918505F0918605EB5BFA4F408390935B
:1039F00086058093850502C08091C600FF91EF91F6
:103A00009F918F914F913F912F910F900FBE0F90EB
:103A10001F9018958FED94E00E943E1C892B11F0A9
:103A20000C94CF1C08951F920F920FB60F92112481
:103A30002F933F938F939F93EF93FF932091410593
:103A4000309142058091430590914405281739072C
:103A500031F48091C1008F7D8093C10014C0E0914A
:103A60004305F0914405EF5FFA4F208180914305B3
:103A70009091440501968F73992790934405809304
:103A800043052093C600FF91EF919F918F913F9145
:103A90002F910F900FBE0F901F9018951092E20477
:103AA0001092E10488EE93E0A0E0B0E08093E3049C
:103AB0009093E404A093E504B093E6048BE294E0D1
:103AC0009093E0048093DF0485E495E09093EC0408
:103AD0008093EB0481E095E09093EE048093ED04F5
:103AE00085EC90E09093F0048093EF0484EC90E0F8
:103AF0009093F2048093F10480EC90E09093F404AE
:103B00008093F30481EC90E09093F6048093F504A5
:103B100082EC90E09093F8048093F70486EC90E0B8
:103B20009093FA048093F90484E08093FB0483E08B
:103B30008093FC0487E08093FD0485E08093FE047D
:103B400081E08093FF0408950C9478156F927F9222
:103B50008F929F92AF92BF92CF92DF92EF92FF929D
:103B60000F931F93CF93DF93EC01CB01209781F448
:103B7000DF91CF911F910F91FF90EF90DF90CF9049
:103B8000BF90AF909F908F907F906F900C9478151E
:103B9000FE01E60FF71F9E0122503109E217F307DD
:103BA00008F4ACC0D9010D911C91119706171707A5
:103BB000B8F00530110508F49FC0A8014450510920
:103BC0004617570708F498C002501109061B170B37
:103BD000019311936D937C93CF010E9410168CC0BA
:103BE0005B01A01AB10A4E01800E911EA0918B05B7
:103BF000B0918C05612C712C60E070E0109709F495
:103C000049C0A815B905C9F5ED90FC901197670159
:103C100042E0C40ED11CCA14DB0478F147018A18B3
:103C20009B08640142E0C40ED11C1296BC9012970E
:103C30001396AC91B5E0CB16D10440F0B282A383C9
:103C400091828082D9018D939C9309C00E5F1F4F92
:103C50000E0D1F1DF90111830083EB2DFA2F611545
:103C6000710531F0DB011396FC93EE93129744C07B
:103C7000F0938C05E0938B053FC06D917C9111977B
:103C80006616770608F43B01BD0112960D90BC91B3
:103C9000A02DB4CF6091890570918A0568157905CA
:103CA000E9F468167906D0F440911F015091200183
:103CB0004115510541F44DB75EB7609123017091F4
:103CC0002401461B570BE417F507C0F4F0938A054F
:103CD000E0938905F901918380830EC00E947815D5
:103CE0007C01009759F0A801BE010E941F21CE015E
:103CF0000E941016C70104C0CE0102C080E090E00F
:103D0000DF91CF911F910F91FF90EF90DF90CF90B7
:103D1000BF90AF909F908F907F906F900895505874
:103D2000BB27AA270ED075C166D130F06BD120F029
:103D300031F49F3F11F41EF45BC10EF4E095E7FBF4
:103D400051C1E92F77D180F3BA176207730784074F
:103D5000950718F071F49EF58FC10EF4E0950B2EC7
:103D6000BA2FA02D0B01B90190010C01CA01A001CD
:103D70001124FF27591B99F0593F50F4503E68F128
:103D80001A16F040A22F232F342F4427585FF3CF69
:103D9000469537952795A795F0405395C9F77EF43A
:103DA0001F16BA0B620B730B840BBAF09150A1F083
:103DB000FF0FBB1F661F771F881FC2F70EC0BA0F09
:103DC000621F731F841F48F4879577956795B79591
:103DD000F7959E3F08F0B3CF9395880F08F0992789
:103DE000EE0F979587950895D9D008F481E008954E
:103DF0000CD00FC107D140F0FED030F021F45F3F6E
:103E000019F0F0C0511139C1F3C014D198F39923BE
:103E1000C9F35523B1F3951B550BBB27AA2762178E
:103E20007307840738F09F5F5F4F220F331F441FD3
:103E3000AA1FA9F333D00E2E3AF0E0E830D091500B
:103E40005040E695001CCAF729D0FE2F27D0660FF8
:103E5000771F881FBB1F261737074807AB07B0E837
:103E600009F0BB0B802DBF01FF2793585F4F2AF04D
:103E70009E3F510568F0B6C000C15F3FECF3983E2D
:103E8000DCF3869577956795B795F7959F5FC9F7AA
:103E9000880F911D9695879597F90895E1E0660F33
:103EA000771F881FBB1F621773078407BA0720F0AC
:103EB000621B730B840BBA0BEE1F88F7E095089515
:103EC00004D06894B111D9C00895BCD088F09F5730
:103ED00090F0B92F9927B751A0F0D1F0660F771F56
:103EE000881F991F1AF0BA95C9F712C0B13081F036
:103EF000C3D0B1E00895C0C0672F782F8827B85F7E
:103F000039F0B93FCCF3869577956795B395D9F796
:103F10003EF490958095709561957F4F8F4F9F4FA0
:103F20000895E89409C097FB3EF4909580957095AC
:103F300061957F4F8F4F9F4F9923A9F0F92F96E9F5
:103F4000BB279395F695879577956795B795F1116A
:103F5000F8CFFAF4BB0F11F460FF1BC06F5F7F4F07
:103F60008F4F9F4F16C0882311F096E911C0772319
:103F700021F09EE8872F762F05C0662371F096E822
:103F8000862F70E060E02AF09A95660F771F881FF1
:103F9000DAF7880F9695879597F90895990F000895
:103FA000550FAA0BE0E8FEEF16161706E807F9070B
:103FB000C0F012161306E407F50798F0621B730BA6
:103FC000840B950B39F40A2661F0232B242B252B27
:103FD00021F408950A2609F4A140A6958FEF811DCA
:103FE000811D089597F99F6780E870E060E008956B
:103FF0009FEF80EC089500240A9416161706180601
:104000000906089500240A941216130614060506DC
:104010000895092E0394000C11F4882352F0BB0F6D
:1040200040F4BF2B11F460FF04C06F5F7F4F8F4FD0
:104030009F4F089557FD9058440F551F59F05F3F0B
:1040400071F04795880F97FB991F61F09F3F79F0BA
:1040500087950895121613061406551FF2CF46953C
:10406000F1DF08C0161617061806991FF1CF8695BE
:104070007105610508940895E894BB2766277727A2
:10408000CB0197F908958ADF08F48FEF08950BD0DC
:10409000C0CFB1DF28F0B6DF18F0952309F0A2CF2A
:1040A000A7CF1124EACFC6DFA0F3959FD1F3950FD8
:1040B00050E0551F629FF001729FBB27F00DB11DAC
:1040C000639FAA27F00DB11DAA1F649F6627B00D3C
:1040D000A11D661F829F2227B00DA11D621F739F25
:1040E000B00DA11D621F839FA00D611D221F749F33
:1040F0003327A00D611D231F849F600D211D822F7A
:10410000762F6A2F11249F5750408AF0E1F08823C0
:104110004AF0EE0FFF1FBB1F661F771F881F9150CD
:104120005040A9F79E3F510570F05CCFA6CF5F3F8E
:10413000ECF3983EDCF3869577956795B795F79500
:10414000E7959F5FC1F7FE2B880F911D9695879588
:1041500097F9089523DF880B990B0895DB018F935E
:104160009F930E94FF20BF91AF91A29F800D911D50
:10417000A39F900DB29F900D11240895A1E21A2ED5
:10418000AA1BBB1BFD010DC0AA1FBB1FEE1FFF1FFB
:10419000A217B307E407F50720F0A21BB30BE40B4B
:1041A000F50B661F771F881F991F1A9469F7609592
:1041B0007095809590959B01AC01BD01CF0108954C
:1041C000052E97FB1EF400940E94F72057FD07D0A0
:1041D0000E94BE2007FC03D04EF40C94F7205095AB
:1041E0004095309521953F4F4F4F5F4F08959095E3
:1041F0008095709561957F4F8F4F9F4F08950E94D6
:104200001021A59F900DB49F900DA49F800D911D2E
:1042100011240895EE0FFF1F0590F491E02D0994ED
:10422000A29FB001B39FC001A39F700D811D1124F7
:10423000911DB29F700D811D1124911D0895FB01E8
:10424000DC0102C001900D9241505040D8F7089512
:10425000FB01DC0101900D920020E1F70895FB01C4
:10426000DC014150504030F08D910190801919F4DB
:104270000020B9F7881B990B0895FB01DC01415020
:10428000504048F001900D920020C9F701C01D92E6
:1042900041505040E0F70895F999FECF92BD81BD9D
:1042A000F89A992780B50895262FF999FECF1FBA5D
:1042B00092BD81BD20BD0FB6F894FA9AF99A0FBE4F
:1042C0000196089510E0C0EDD0E004C0FE010E9408
:0E42D0000C212296C23DD107C9F7F894FFCF0A
:1042DE000800653935306266393533623637333426
:1042EE0033636266663000DEADBEEFFEED000400A5
:1042FE00008D05800001DEADBEEFFEED2C2200200C
:10430E0048756D696469747900485454502F312E84
:10431E003120323030204F4B00436F6E74656E7417
:10432E002D547970653A206170706C69636174699F
:10433E006F6E2F6A736F6E3B636861727365743D47
:10434E007574662D38005365727665723A20417227
:10435E006475696E6F00436F6E6E6E656374696F20
:10436E006E3A20636C6F7365007B226C6F636174B1
:10437E00696F6E223A22002C22546F6B656E223AC0
:10438E0022002C2253746174757320416B74756115
:10439E00746F72223A220073656E736F725F6B6573
:1043AE006C656D626162616E5F74616E61680073EF
:1043BE00656E736F725F73756875007D00636C69EF
:1043CE00656E7420646973636F6E6E656374656485
:1043DE0000436F6E74656E742D547970653A207457
:1043EE006578742F68746D6C003C21444F435459AA
:1043FE0050452048544D4C3E003C68746D6C3E0058
:10440E003C2F68746D6C3E00536572766572206940
:10441E00732061742000477720617420005061730F
:10442E0073776F72643A20006E65772072657365DC
:10443E007420636C69656E740072657365740041F7
:10444E00726475696E6F2077696C6C20626520648A
:10445E006F696E672061206E6F726D616C20726580
:10446E0073657420696E2032207365636F6E64739A
:10447E0000726570726F6772616D0041726475696A
:10448E006E6F2077696C6C20726573657420666F31
:10449E007220726570726F6772616D6D696E6720E2
:1044AE00696E2032207365636F6E64730057726F8E
:1044BE006E6720636F6D6D616E640057726F6E670D
:1044CE00207061746800726573657420636C696531
:1044DE006E74206469736F6E6E656374656400003C
:1044EE000000009B06D006EA06F5061307B106C5C6
:1044FE000736070F0731087208C80600000000A132
:10450E00086709B70800000000C3110C12BF112084
:10451E00126612D911D012EB1100121F1308127F5E
:10452E00124912A411AB11BB112D2D2D204E657405
:10453E00776F726B2053657474696E6773202D2DBF
:10454E002D00202020204D41433A20003078002EAF
:10455E0000416464726573733A2000476174657735
:10456E0061793A2000205375626E65743A20002DF1
:10457E002D2D20546674702053657474696E6773A4
:10458E00202D2D2D004461746120506F72743A20DD
:10459E000061726961646E65002D2D2D2052657368
:1045AE006574205365727665722053657474696EF6
:1045BE006773202D2D2D0020204C656E6774683A90
:1045CE0020002844656661756C7473290028446563
:1045DE006661756C742900284E6F20706173737755
:1045EE006F726429000000000082186E616E00690F
:1045FE006E66006F76660000000000921CD4193EB5
:08460E001C671C4E1C871C00F8
:00000001FF
